{
  "_format": "hh-sol-artifact-1",
  "contractName": "mozart",
  "sourceName": "contracts/mozart.sol",
  "abi": [
    {
      "inputs": [],
      "stateMutability": "nonpayable",
      "type": "constructor"
    },
    {
      "anonymous": false,
      "inputs": [
        {
          "indexed": true,
          "internalType": "address",
          "name": "owner",
          "type": "address"
        },
        {
          "indexed": true,
          "internalType": "address",
          "name": "spender",
          "type": "address"
        },
        {
          "indexed": false,
          "internalType": "uint256",
          "name": "value",
          "type": "uint256"
        }
      ],
      "name": "Approval",
      "type": "event"
    },
    {
      "anonymous": false,
      "inputs": [
        {
          "indexed": true,
          "internalType": "address",
          "name": "_from",
          "type": "address"
        },
        {
          "indexed": true,
          "internalType": "address",
          "name": "_to",
          "type": "address"
        },
        {
          "indexed": false,
          "internalType": "uint256",
          "name": "_value",
          "type": "uint256"
        }
      ],
      "name": "Transfer",
      "type": "event"
    },
    {
      "inputs": [
        {
          "internalType": "address",
          "name": "",
          "type": "address"
        },
        {
          "internalType": "address",
          "name": "",
          "type": "address"
        }
      ],
      "name": "allowances",
      "outputs": [
        {
          "internalType": "uint256",
          "name": "",
          "type": "uint256"
        }
      ],
      "stateMutability": "view",
      "type": "function"
    },
    {
      "inputs": [
        {
          "internalType": "address",
          "name": "spender",
          "type": "address"
        },
        {
          "internalType": "uint256",
          "name": "value",
          "type": "uint256"
        }
      ],
      "name": "approval",
      "outputs": [
        {
          "internalType": "bool",
          "name": "",
          "type": "bool"
        }
      ],
      "stateMutability": "nonpayable",
      "type": "function"
    },
    {
      "inputs": [
        {
          "internalType": "address",
          "name": "account",
          "type": "address"
        }
      ],
      "name": "balanceOf",
      "outputs": [
        {
          "internalType": "uint256",
          "name": "",
          "type": "uint256"
        }
      ],
      "stateMutability": "view",
      "type": "function"
    },
    {
      "inputs": [],
      "name": "decimals",
      "outputs": [
        {
          "internalType": "uint8",
          "name": "",
          "type": "uint8"
        }
      ],
      "stateMutability": "view",
      "type": "function"
    },
    {
      "inputs": [],
      "name": "description",
      "outputs": [
        {
          "internalType": "string",
          "name": "",
          "type": "string"
        }
      ],
      "stateMutability": "view",
      "type": "function"
    },
    {
      "inputs": [],
      "name": "myBalance",
      "outputs": [
        {
          "internalType": "uint256",
          "name": "balance",
          "type": "uint256"
        }
      ],
      "stateMutability": "view",
      "type": "function"
    },
    {
      "inputs": [],
      "name": "name",
      "outputs": [
        {
          "internalType": "string",
          "name": "",
          "type": "string"
        }
      ],
      "stateMutability": "view",
      "type": "function"
    },
    {
      "inputs": [],
      "name": "owner",
      "outputs": [
        {
          "internalType": "address",
          "name": "",
          "type": "address"
        }
      ],
      "stateMutability": "view",
      "type": "function"
    },
    {
      "inputs": [],
      "name": "symbol",
      "outputs": [
        {
          "internalType": "string",
          "name": "",
          "type": "string"
        }
      ],
      "stateMutability": "view",
      "type": "function"
    },
    {
      "inputs": [],
      "name": "totalSupply",
      "outputs": [
        {
          "internalType": "uint256",
          "name": "",
          "type": "uint256"
        }
      ],
      "stateMutability": "view",
      "type": "function"
    },
    {
      "inputs": [
        {
          "internalType": "address",
          "name": "to",
          "type": "address"
        },
        {
          "internalType": "uint256",
          "name": "amount",
          "type": "uint256"
        }
      ],
      "name": "transfer",
      "outputs": [],
      "stateMutability": "nonpayable",
      "type": "function"
    },
    {
      "inputs": [
        {
          "internalType": "address",
          "name": "from",
          "type": "address"
        },
        {
          "internalType": "address",
          "name": "to",
          "type": "address"
        },
        {
          "internalType": "uint256",
          "name": "amount",
          "type": "uint256"
        }
      ],
      "name": "transferFrom",
      "outputs": [
        {
          "internalType": "bool",
          "name": "",
          "type": "bool"
        }
      ],
      "stateMutability": "payable",
      "type": "function"
    }
  ],
  "bytecode": "0x60c0604052600b60808190526a4d6f7a617274706561636560a81b60a090815261002c91600091906100f3565b506040805180820190915260038082526213541560ea1b6020909201918252610057916001916100f3565b506040805180820190915260168082527f536f6d65207769736520776f72647320686572652e2e00000000000000000000602090920191825261009c916002916100f3565b506003805460ff1916601217905569d3c21bcecceda10000006004553480156100c457600080fd5b5060045433600081815260066020526040902091909155600580546001600160a01b03191690911790556101c7565b8280546100ff9061018c565b90600052602060002090601f0160209004810192826101215760008555610167565b82601f1061013a57805160ff1916838001178555610167565b82800160010185558215610167579182015b8281111561016757825182559160200191906001019061014c565b50610173929150610177565b5090565b5b808211156101735760008155600101610178565b600181811c908216806101a057607f821691505b602082108114156101c157634e487b7160e01b600052602260045260246000fd5b50919050565b6107c9806101d66000396000f3fe6080604052600436106100a75760003560e01c80637284e416116100645780637284e416146101b857806375247a58146101cd5780638da5cb5b146101ed57806395d89b4114610225578063a9059cbb1461023a578063c9116b691461025c57600080fd5b806306fdde03146100ac57806318160ddd146100d757806323b872dd146100fb578063313ce5671461011e57806355b6ed5c1461014a57806370a0823114610182575b600080fd5b3480156100b857600080fd5b506100c161027e565b6040516100ce91906105e7565b60405180910390f35b3480156100e357600080fd5b506100ed60045481565b6040519081526020016100ce565b61010e610109366004610658565b61030c565b60405190151581526020016100ce565b34801561012a57600080fd5b506003546101389060ff1681565b60405160ff90911681526020016100ce565b34801561015657600080fd5b506100ed610165366004610694565b600760209081526000928352604080842090915290825290205481565b34801561018e57600080fd5b506100ed61019d3660046106c7565b6001600160a01b031660009081526006602052604090205490565b3480156101c457600080fd5b506100c1610479565b3480156101d957600080fd5b5061010e6101e83660046106e9565b610486565b3480156101f957600080fd5b5060055461020d906001600160a01b031681565b6040516001600160a01b0390911681526020016100ce565b34801561023157600080fd5b506100c16104f2565b34801561024657600080fd5b5061025a6102553660046106e9565b6104ff565b005b34801561026857600080fd5b50336000908152600660205260409020546100ed565b6000805461028b90610713565b80601f01602080910402602001604051908101604052809291908181526020018280546102b790610713565b80156103045780601f106102d957610100808354040283529160200191610304565b820191906000526020600020905b8154815290600101906020018083116102e757829003601f168201915b505050505081565b6001600160a01b038316600090815260076020908152604080832033845290915281205482111561038e5760405162461bcd60e51b815260206004820152602160248201527f4e6f7420656e6f75676820616c6c6f77616e63652077617320617070726f76656044820152601960fa1b60648201526084015b60405180910390fd5b6001600160a01b038416600090815260066020526040812080548492906103b6908490610764565b90915550506001600160a01b038316600090815260066020526040812080548492906103e390849061077b565b90915550506001600160a01b03841660009081526007602090815260408083203384529091528120805484929061041b908490610764565b92505081905550826001600160a01b0316846001600160a01b03167fddf252ad1be2c89b69c2b068fc378daa952ba7f163c4a11628f55a4df523b3ef8460405161046791815260200190565b60405180910390a35060019392505050565b6002805461028b90610713565b3360008181526007602090815260408083206001600160a01b038716808552925280832085905551919290917f8c5be1e5ebec7d5bd14f71427d1e84f3dd0314c0f7b2291e5b200ac8c7c3b925906104e19086815260200190565b60405180910390a350600192915050565b6001805461028b90610713565b336000908152600660205260409020548111156105525760405162461bcd60e51b81526020600482015260116024820152704e6f7420656e6f75676820746f6b656e7360781b6044820152606401610385565b3360009081526006602052604081208054839290610571908490610764565b90915550506001600160a01b0382166000908152600660205260408120805483929061059e90849061077b565b90915550506040518181526001600160a01b0383169033907fddf252ad1be2c89b69c2b068fc378daa952ba7f163c4a11628f55a4df523b3ef9060200160405180910390a35050565b600060208083528351808285015260005b81811015610614578581018301518582016040015282016105f8565b81811115610626576000604083870101525b50601f01601f1916929092016040019392505050565b80356001600160a01b038116811461065357600080fd5b919050565b60008060006060848603121561066d57600080fd5b6106768461063c565b92506106846020850161063c565b9150604084013590509250925092565b600080604083850312156106a757600080fd5b6106b08361063c565b91506106be6020840161063c565b90509250929050565b6000602082840312156106d957600080fd5b6106e28261063c565b9392505050565b600080604083850312156106fc57600080fd5b6107058361063c565b946020939093013593505050565b600181811c9082168061072757607f821691505b6020821081141561074857634e487b7160e01b600052602260045260246000fd5b50919050565b634e487b7160e01b600052601160045260246000fd5b6000828210156107765761077661074e565b500390565b6000821982111561078e5761078e61074e565b50019056fea264697066735822122061e4659a61a18c38547ffd684d8a4d0253885cc87ca4f92748b2d9a065d7653664736f6c63430008090033",
  "linkReferences": {},
  "deployedLinkReferences": {}
}